AXXX sim_logger v2.31
HFDTE060809
HFFXA035
HFPLTPILOTINCHARGE: Ian Forster-Lewis
HFCM2CREW2: not recorded
HFGTYGLIDERTYPE:ASH25 B21
HFGIDGLIDERID:B21
HFDTM100GPSDATUM: WGS-1984
HFRFWFIRMWAREVERSION: 2.31
HFRHWHARDWAREVERSION: 2009
HFFTYFRTYPE: sim_logger by Ian Forster-Lewis
HFGPSGPS:Microsoft Flight Simulator
HFPRSPRESSALTSENSOR: Microsoft Flight Simulator
HFCIDCOMPETITIONID:B21
HFCCLCOMPETITIONCLASS: 
I023638FXA3941ENL
C030411192040000000000102X3SI to X3SI
C5249521N00212536WSeighford
C5249521N00212536WX3SI
C5238400N00218330WEGWC
C5243721N00201181WPye Gn
C5249670N00212230WX3SI
C5249670N00212230WSeighford
L FSX user PC time            2011-04-03_1920
L FSX FLT checksum            FA31C2 (flight simulator x files\UKVGA Seighford Task 1 50km.FLT)
L FSX WX checksum             35IJGB (flight simulator x files\UKVGA Seighford Task 1 50km.WX)
L FSX CMX checksum            YQ8OJM (flight simulator x files\UKVGA Seighford Task 1 50km.CMX)
L FSX CumulusX.exe checksum   DJCIJC
L FSX mission checksum        000000 (not found)
L FSX aircraft.cfg checksum   7P6ZW7 (ASH25V8_B21\aircraft.cfg)
L FSX AIR checksum            BBDLLY (ASH25V8_B21\ASH25V8x.AIR)
L FSX CumulusX status:        LOCKED OK
L FSX WX status:              LOCKED OK
L FSX ThermalDescriptions.xml REMOVED OK
L FSX GENERAL CHECKSUM            MNF8PW  <---- CHECK THIS FIRST
B1252445249521N00212535WA0010300103027000
B1252455249521N00212535WA0009900099027000
B1252495249521N00212535WA0009900099027000
B1252535249521N00212535WA0009900099027000
B1252575249521N00212535WA0009900099027000
B1253015249521N00212535WA0009900099027000
B1253055249521N00212535WA0009900099027000
B1253095249521N00212535WA0009900099027000
B1253135249521N00212535WA0009900099027000
B1253175249521N00212535WA0009900099027000
B1253215249521N00212535WA0009900099027000
B1253255249521N00212535WA0009900099027000
B1253295249521N00212535WA0009900099027000
B1253335249523N00212528WA0009900099027000
B1253375249544N00212462WA0010400104027000
B1253415249572N00212383WA0012300123027000
B1253455249601N00212309WA0015800158027000
B1253495249626N00212237WA0020400204027000
B1253535249649N00212166WA0025700257027000
B1253575249672N00212092WA0031000310027000
B1254015249698N00212005WA0033800338027000
B1254055249729N00211898WA0032400324027000
B1254095249757N00211801WA0035600356027000
B1254135249780N00211716WA0036700367027000
B1254175249801N00211639WA0037200372027000
B1254215249823N00211560WA0035800358027000
B1254255249846N00211470WA0035100351027000
B1254295249869N00211380WA0034900349027000
B1254335249894N00211291WA0034700347027000
B1254375249924N00211204WA0034100341027000
B1254415249958N00211121WA0033600336027000
B1254455249998N00211046WA0033600336027000
B1254495250039N00210978WA0033600336027000
B1254535250081N00210913WA0033500335027000
B1254575250124N00210849WA0033300333027000
B1255015250166N00210785WA0033100331027000
B1255055250208N00210725WA0032800328027000
B1255095250256N00210666WA0033800338027000
B1255135250304N00210612WA0036200362027000
B1255175250357N00210590WA0038200382027000
B1255215250410N00210619WA0039800398027000
B1255255250450N00210695WA0041200412027000
B1255295250462N00210800WA0042600426027000
B1255335250439N00210901WA0044100441027000
B1255375250390N00210965WA0044200442027000
B1255415250330N00210977WA0043000430027000
B1255455250279N00210931WA0042600426027000
B1255495250259N00210850WA0042500425027000
B1255535250275N00210765WA0043400434027000
B1255575250318N00210703WA0045600456027000
B1256015250366N00210660WA0047400474027000
B1256055250415N00210622WA0049100491027000
B1256095250464N00210590WA0049700497027000
B1256135250519N00210587WA0048800488027000
B1256175250572N00210639WA0047900479027000
B1256215250599N00210745WA0046700467027000
B1256255250578N00210862WA0045600456027000
B1256295250518N00210929WA0044200442027000
B1256335250448N00210945WA0043900439027000
B1256375250383N00210955WA0044400444027000
B1256415250323N00210963WA0044500445027000
B1256455250262N00210968WA0044100441027000
B1256495250200N00210971WA0043700437027000
B1256535250140N00210956WA0043300433027000
B1256575250086N00210909WA0042300423027000
B1257015250047N00210832WA0042000420027000
B1257055250015N00210750WA0042100421027000
B1257095249983N00210670WA0041700417027000
B1257135249951N00210588WA0041300413027000
B1257175249920N00210505WA0040700407027000
B1257215249889N00210422WA0040200402027000
B1257255249857N00210341WA0039800398027000
B1257295249825N00210259WA0039400394027000
B1257335249793N00210177WA0039400394027000
B1257375249763N00210094WA0039300393027000
B1257415249733N00210013WA0039300393027000
B1257455249704N00209934WA0039200392027000
B1257495249674N00209854WA0039000390027000
B1257535249646N00209774WA0039100391027000
B1257575249618N00209694WA0039000390027000
B1258015249590N00209613WA0038800388027000
B1258055249562N00209533WA0038400384027000
B1258095249534N00209453WA0038000380027000
B1258135249505N00209373WA0037600376027000
B1258175249477N00209294WA0037200372027000
B1258215249448N00209214WA0036900369027000
B1258255249420N00209134WA0036600366027000
B1258295249392N00209053WA0036400364027000
B1258335249361N00208974WA0036400364027000
B1258375249329N00208898WA0036200362027000
B1258415249296N00208822WA0036100361027000
B1258455249263N00208746WA0035900359027000
B1258495249231N00208669WA0035700357027000
B1258535249200N00208591WA0035500355027000
B1258575249168N00208514WA0034800348027000
B1259015249138N00208436WA0033800338027000
B1259055249109N00208357WA0032600326027000
B1259095249077N00208280WA0031800318027000
B1259135249042N00208205WA0031600316027000
B1259175249004N00208132WA0031900319027000
B1259215248968N00208063WA0033200332027000
B1259255248933N00208000WA0034100341027000
B1259295248900N00207936WA0034400344027000
B1259335248870N00207868WA0034700347027000
B1259375248851N00207789WA0034900349027000
B1259415248853N00207706WA0035800358027000
B1259455248879N00207636WA0036500365027000
B1259495248928N00207602WA0037300373027000
B1259535248985N00207626WA0038100381027000
B1259575249023N00207715WA0038300383027000
B1300015249012N00207832WA0038900389027000
B1300055248952N00207894WA0039400394027000
B1300095248889N00207864WA0040700407027000
B1300135248860N00207788WA0042300423027000
B1300175248867N00207708WA0043100431027000
B1300215248905N00207655WA0044100441027000
B1300255248957N00207652WA0045000450027000
B1300295249006N00207707WA0045800458027000
B1300335249024N00207811WA0046900469027000
B1300375248990N00207910WA0047300473027000
B1300415248923N00207925WA0047700477027000
B1300455248880N00207854WA0048100481027000
B1300495248884N00207763WA0049100491027000
B1300535248923N00207703WA0050500505027000
B1300575248976N00207684WA0051900519027000
B1301015249030N00207680WA0053800538027000
B1301055249085N00207682WA0055200552027000
B1301095249142N00207694WA0056700567027000
B1301135249194N00207747WA0058000580027000
B1301175249222N00207849WA0059000590027000
B1301215249209N00207963WA0060400604027000
B1301255249160N00208041WA0061700617027000
B1301295249098N00208060WA0063000630027000
B1301335249045N00208015WA0063700637027000
B1301375249025N00207930WA0064700647027000
B1301415249044N00207846WA0066100661027000
B1301455249097N00207807WA0067600676027000
B1301495249156N00207838WA0068900689027000
B1301535249193N00207932WA0069600696027000
B1301575249187N00208053WA0070600706027000
B1302015249144N00208144WA0071700717027000
B1302055249082N00208182WA0072400724027000
B1302095249022N00208164WA0073400734027000
B1302135248980N00208107WA0074300743027000
B1302175248961N00208026WA0075300753027000
B1302215248972N00207943WA0076600766027000
B1302255249013N00207884WA0077700777027000
B1302295249072N00207877WA0079000790027000
B1302335249127N00207933WA0080200802027000
B1302375249154N00208040WA0081000810027000
B1302415249139N00208156WA0082100821027000
B1302455249088N00208236WA0082400824027000
B1302495249023N00208254WA0082700827027000
B1302535248968N00208211WA0083200832027000
B1302575248942N00208132WA0083600836027000
B1303015248952N00208045WA0083900839027000
B1303055248996N00207986WA0084700847027000
B1303095249051N00207956WA0087000870027000
B1303135249105N00207933WA0089100891027000
B1303175249157N00207906WA0091000910027000
B1303215249208N00207877WA0092700927027000
B1303255249262N00207860WA0094000940027000
B1303295249319N00207884WA0094900949027000
B1303335249366N00207961WA0095600956027000
B1303375249383N00208074WA0096100961027000
B1303415249361N00208185WA0096300963027000
B1303455249310N00208262WA0096300963027000
B1303495249248N00208281WA0096500965027000
B1303535249193N00208244WA0096900969027000
B1303575249152N00208178WA0098100981027000
B1304015249114N00208114WA0100001000027000
B1304055249073N00208056WA0101801018027000
B1304095249030N00208002WA0103401034027000
B1304135248988N00207949WA0105001050027000
B1304175248948N00207893WA0106401064027000
B1304215248912N00207830WA0107501075027000
B1304255248896N00207750WA0108201082027000
B1304295248913N00207669WA0108801088027000
B1304335248958N00207619WA0109601096027000
B1304375249016N00207622WA0110601106027000
B1304415249066N00207688WA0111501115027000
B1304455249081N00207802WA0112501125027000
B1304495249048N00207910WA0113801138027000
B1304535248984N00207960WA0115501155027000
B1304575248920N00207940WA0116401164027000
B1305015248880N00207861WA0117301173027000
B1305055248875N00207765WA0118401184027000
B1305095248902N00207683WA0119601196027000
B1305135248950N00207633WA0120701207027000
B1305175249010N00207624WA0121701217027000
B1305215249068N00207662WA0122901229027000
B1305255249112N00207744WA0124101241027000
B1305295249127N00207859WA0125401254027000
B1305335249099N00207972WA0126401264027000
B1305375249037N00208034WA0127601276027000
B1305415248968N00208031WA0129001290027000
B1305455248914N00207971WA0130501305027000
B1305495248891N00207883WA0131801318027000
B1305535248900N00207792WA0132901329027000
B1305575248939N00207725WA0133901339027000
B1306015248995N00207696WA0135201352027000
B1306055249057N00207715WA0136401364027000
B1306095249109N00207782WA0138001380027000
B1306135249138N00207887WA0139601396027000
B1306175249131N00208008WA0140401404027000
B1306215249081N00208104WA0141101411027000
B1306255249011N00208148WA0142301423027000
B1306295248943N00208140WA0143801438027000
B1306335248886N00208093WA0145001450027000
B1306375248846N00208023WA0146101461027000
B1306415248823N00207937WA0147001470027000
B1306455248819N00207846WA0147701477027000
B1306495248834N00207760WA0148501485027000
B1306535248867N00207687WA0149301493027000
B1306575248913N00207635WA0150201502027000
B1307015248969N00207612WA0151301513027000
B1307055249030N00207624WA0152201522027000
B1307095249085N00207679WA0153101531027000
B1307135249123N00207777WA0153601536027000
B1307175249128N00207904WA0153801538027000
B1307215249113N00208040WA0154901549027000
B1307255249109N00208178WA0156101561027000
B1307295249120N00208322WA0156801568027000
B1307335249148N00208463WA0156901569027000
B1307375249186N00208604WA0156801568027000
B1307415249222N00208745WA0156001560027000
B1307455249256N00208890WA0155001550027000
B1307495249292N00209034WA0154501545027000
B1307535249328N00209177WA0153701537027000
B1307575249363N00209325WA0152701527027000
B1308015249397N00209476WA0152101521027000
B1308055249430N00209624WA0151401514027000
B1308095249462N00209773WA0150901509027000
B1308135249492N00209922WA0150301503027000
B1308175249521N00210074WA0149601496027000
B1308215249545N00210228WA0148901489027000
B1308255249554N00210388WA0148301483027000
B1308295249556N00210550WA0147801478027000
B1308335249556N00210713WA0147101471027000
B1308375249557N00210879WA0145601456027000
B1308415249558N00211054WA0143001430027000
B1308455249556N00211248WA0139801398027000
B1308495249553N00211455WA0136401364027000
B1308535249548N00211678WA0131601316027000
B1308575249543N00211922WA0127101271027000
B1309015249534N00212175WA0122601226027000
B1309055249520N00212442WA0118401184027000
B1309095249475N00212702WA0117601176027000
B1309135249383N00212905WA0119001190027000
B1309175249263N00213029WA0120201202027000
B1309215249145N00213118WA0122701227027000
B1309255249042N00213202WA0125401254027000
B1309295248951N00213280WA0127701277027000
B1309335248873N00213351WA0129701297027000
B1309375248802N00213417WA0129901299027000
B1309415248731N00213490WA0129301293027000
B1309455248661N00213565WA0128901289027000
B1309495248590N00213641WA0128301283027000
B1309535248520N00213715WA0127301273027000
B1309575248446N00213792WA0126001260027000
B1310015248370N00213872WA0124801248027000
B1310055248291N00213953WA0123901239027000
B1310095248212N00214035WA0123301233027000
B1310135248132N00214119WA0122501225027000
B1310175248051N00214202WA0122101221027000
B1310215247971N00214284WA0121001210027000
B1310255247892N00214369WA0119901199027000
B1310295247813N00214455WA0121601216027000
B1310335247752N00214520WA0126101261027000
B1310375247695N00214577WA0126601266027000
B1310415247635N00214640WA0127101271027000
B1310455247574N00214706WA0129201292027000
B1310495247517N00214770WA0131201312027000
B1310535247461N00214837WA0133001330027000
B1310575247404N00214904WA0134401344027000
B1311015247345N00214971WA0135501355027000
B1311055247286N00215040WA0136301363027000
B1311095247225N00215110WA0137001370027000
B1311135247163N00215177WA0136601366027000
B1311175247097N00215242WA0134901349027000
B1311215247025N00215313WA0132601326027000
B1311255246946N00215391WA0131801318027000
B1311295246872N00215462WA0134401344027000
B1311335246811N00215521WA0136601366027000
B1311375246751N00215577WA0137501375027000
B1311415246687N00215636WA0139101391027000
B1311455246623N00215696WA0141201412027000
B1311495246559N00215754WA0143401434027000
B1311535246494N00215812WA0145401454027000
B1311575246430N00215868WA0147601476027000
B1312015246363N00215920WA0149801498027000
B1312055246296N00215974WA0152001520027000
B1312095246227N00216031WA0154001540027000
B1312135246157N00216086WA0155601556027000
B1312175246084N00216141WA0155801558027000
B1312215246005N00216201WA0155001550027000
B1312255245920N00216263WA0154101541027000
B1312295245829N00216326WA0153101531027000
B1312335245735N00216388WA0151601516027000
B1312375245638N00216450WA0150601506027000
B1312415245542N00216513WA0150501505027000
B1312455245453N00216572WA0150701507027000
B1312495245365N00216629WA0150601506027000
B1312535245279N00216681WA0150101501027000
B1312575245191N00216729WA0149501495027000
B1313015245103N00216774WA0149101491027000
B1313055245015N00216819WA0148901489027000
B1313095244927N00216869WA0149201492027000
B1313135244843N00216913WA0149101491027000
B1313175244758N00216954WA0148701487027000
B1313215244673N00216993WA0147901479027000
B1313255244585N00217030WA0147101471027000
B1313295244497N00217066WA0146601466027000
B1313335244409N00217101WA0146101461027000
B1313375244320N00217135WA0145501455027000
B1313415244231N00217167WA0144501445027000
B1313455244142N00217198WA0144001440027000
B1313495244054N00217226WA0143701437027000
B1313535243967N00217254WA0143201432027000
B1313575243882N00217284WA0142801428027000
B1314015243795N00217314WA0142301423027000
B1314055243710N00217343WA0142001420027000
B1314095243625N00217372WA0141101411027000
B1314135243535N00217402WA0139701397027000
B1314175243443N00217432WA0138701387027000
B1314215243348N00217465WA0137701377027000
B1314255243252N00217498WA0136901369027000
B1314295243156N00217528WA0136001360027000
B1314335243057N00217556WA0134401344027000
B1314375242956N00217584WA0133201332027000
B1314415242856N00217614WA0133601336027000
B1314455242762N00217643WA0134001340027000
B1314495242669N00217671WA0133801338027000
B1314535242578N00217697WA0133001330027000
B1314575242485N00217724WA0132301323027000
B1315015242393N00217750WA0131701317027000
B1315055242301N00217776WA0131301313027000
B1315095242209N00217801WA0130301303027000
B1315135242115N00217824WA0128301283027000
B1315175242018N00217854WA0126401264027000
B1315215241918N00217885WA0125101251027000
B1315255241816N00217914WA0124101241027000
B1315295241717N00217941WA0124301243027000
B1315335241622N00217966WA0124201242027000
B1315375241528N00217990WA0123201232027000
B1315415241433N00218015WA0122401224027000
B1315455241340N00218037WA0122301223027000
B1315495241247N00218054WA0122901229027000
B1315535241162N00218069WA0125001250027000
B1315575241089N00218081WA0126501265027000
B1316015241016N00218092WA0125601256027000
B1316055240939N00218105WA0126501265027000
B1316095240868N00218114WA0129701297027000
B1316135240803N00218121WA0131601316027000
B1316175240739N00218125WA0133101331027000
B1316215240675N00218128WA0134401344027000
B1316255240609N00218131WA0135801358027000
B1316295240543N00218133WA0137501375027000
B1316335240477N00218135WA0139201392027000
B1316375240412N00218137WA0141001410027000
B1316415240345N00218139WA0142801428027000
B1316455240279N00218140WA0144501445027000
B1316495240212N00218140WA0146101461027000
B1316535240143N00218141WA0148101481027000
B1316575240075N00218141WA0150301503027000
B1317015240009N00218141WA0152401524027000
B1317055239943N00218145WA0153801538027000
B1317095239876N00218150WA0154101541027000
B1317135239802N00218155WA0153501535027000
B1317175239724N00218158WA0152901529027000
B1317215239644N00218164WA0151801518027000
B1317255239559N00218172WA0150401504027000
B1317295239471N00218180WA0148801488027000
B1317335239380N00218187WA0147601476027000
B1317375239289N00218193WA0146701467027000
B1317415239198N00218199WA0146301463027000
B1317455239108N00218205WA0146201462027000
B1317495239020N00218206WA0145801458027000
B1317535238933N00218207WA0145601456027000
B1317575238849N00218228WA0145501455027000
B1318015238768N00218264WA0144801448027000
B1318055238687N00218308WA0143601436027000
B1318095238603N00218357WA0142101421027000
B1318135238515N00218391WA0141201412027000
B1318175238425N00218374WA0140401404027000
B1318215238346N00218293WA0138601386027000
B1318255238295N00218153WA0136201362027000
B1318295238282N00217983WA0134301343027000
B1318335238311N00217813WA0132601326027000
B1318375238365N00217655WA0132101321027000
B1318415238419N00217505WA0132001320027000
B1318455238470N00217361WA0132301323027000
B1318495238519N00217218WA0130801308027000
B1318535238572N00217074WA0129601296027000
B1318575238626N00216928WA0130601306027000
B1319015238679N00216798WA0134101341027000
B1319055238722N00216700WA0139401394027000
B1319095238760N00216623WA0141301413027000
B1319135238797N00216536WA0140501405027000
B1319175238830N00216439WA0141101411027000
B1319215238860N00216344WA0140601406027000
B1319255238895N00216239WA0138201382027000
B1319295238933N00216120WA0135701357027000
B1319335238974N00215993WA0133801338027000
B1319375239017N00215864WA0132301323027000
B1319415239059N00215732WA0131101311027000
B1319455239103N00215599WA0130301303027000
B1319495239147N00215462WA0128801288027000
B1319535239192N00215320WA0127801278027000
B1319575239236N00215184WA0128401284027000
B1320015239278N00215062WA0129001290027000
B1320055239319N00214953WA0128501285027000
B1320095239361N00214837WA0125401254027000
B1320135239408N00214709WA0123701237027000
B1320175239455N00214580WA0124801248027000
B1320215239495N00214470WA0129001290027000
B1320255239525N00214389WA0132501325027000
B1320295239557N00214306WA0131701317027000
B1320335239592N00214221WA0133601336027000
B1320375239624N00214148WA0135301353027000
B1320415239654N00214079WA0136201362027000
B1320455239684N00214004WA0136701367027000
B1320495239709N00213922WA0137301373027000
B1320535239731N00213838WA0137701377027000
B1320575239751N00213752WA0137301373027000
B1321015239773N00213660WA0136201362027000
B1321055239801N00213557WA0134501345027000
B1321095239834N00213443WA0132301323027000
B1321135239871N00213317WA0130401304027000
B1321175239910N00213187WA0128901289027000
B1321215239951N00213055WA0127301273027000
B1321255239997N00212924WA0125901259027000
B1321295240045N00212789WA0124501245027000
B1321335240093N00212652WA0124601246027000
B1321375240138N00212528WA0126601266027000
B1321415240180N00212418WA0126701267027000
B1321455240224N00212305WA0125001250027000
B1321495240266N00212177WA0122901229027000
B1321535240299N00212035WA0121401214027000
B1321575240330N00211888WA0120401204027000
B1322015240364N00211743WA0120001200027000
B1322055240399N00211602WA0120501205027000
B1322095240432N00211470WA0120501205027000
B1322135240464N00211341WA0120101201027000
B1322175240495N00211211WA0119701197027000
B1322215240528N00211083WA0119301193027000
B1322255240561N00210954WA0118801188027000
B1322295240595N00210825WA0118201182027000
B1322335240629N00210697WA0117901179027000
B1322375240663N00210569WA0117301173027000
B1322415240697N00210442WA0116701167027000
B1322455240732N00210315WA0116101161027000
B1322495240767N00210190WA0115401154027000
B1322535240802N00210065WA0114901149027000
B1322575240838N00209940WA0114401144027000
B1323015240874N00209814WA0113901139027000
B1323055240910N00209685WA0113201132027000
B1323095240945N00209558WA0112401124027000
B1323135240979N00209432WA0112001120027000
B1323175241014N00209308WA0111601116027000
B1323215241051N00209185WA0111001110027000
B1323255241086N00209068WA0112701127027000
B1323295241115N00208964WA0113001130027000
B1323335241146N00208857WA0111101111027000
B1323375241180N00208740WA0109401094027000
B1323415241216N00208619WA0108201082027000
B1323455241252N00208495WA0108001080027000
B1323495241288N00208375WA0108001080027000
B1323535241323N00208255WA0107901079027000
B1323575241356N00208138WA0107701077027000
B1324015241388N00208021WA0107201072027000
B1324055241420N00207904WA0106701067027000
B1324095241451N00207785WA0106401064027000
B1324135241484N00207668WA0106601066027000
B1324175241514N00207559WA0107801078027000
B1324215241543N00207457WA0107301073027000
B1324255241574N00207351WA0106101061027000
B1324295241604N00207237WA0105201052027000
B1324335241636N00207122WA0104601046027000
B1324375241667N00207003WA0103601036027000
B1324415241700N00206883WA0102701027027000
B1324455241734N00206761WA0101701017027000
B1324495241767N00206637WA0100801008027000
B1324535241801N00206514WA0100401004027000
B1324575241834N00206394WA0100101001027000
B1325015241868N00206276WA0099900999027000
B1325055241902N00206159WA0099400994027000
B1325095241936N00206043WA0098900989027000
B1325135241971N00205928WA0098400984027000
B1325175242005N00205813WA0097700977027000
B1325215242039N00205697WA0097000970027000
B1325255242073N00205578WA0096300963027000
B1325295242107N00205458WA0095700957027000
B1325335242142N00205338WA0095400954027000
B1325375242176N00205222WA0095100951027000
B1325415242210N00205106WA0094700947027000
B1325455242241N00204991WA0094400944027000
B1325495242273N00204878WA0094000940027000
B1325535242305N00204766WA0093500935027000
B1325575242338N00204655WA0093000930027000
B1326015242371N00204542WA0092600926027000
B1326055242405N00204430WA0092100921027000
B1326095242438N00204316WA0091200912027000
B1326135242473N00204203WA0090000900027000
B1326175242509N00204092WA0088500885027000
B1326215242548N00203977WA0086600866027000
B1326255242591N00203858WA0085200852027000
B1326295242635N00203739WA0084500845027000
B1326335242678N00203623WA0085800858027000
B1326375242719N00203524WA0086500865027000
B1326415242758N00203426WA0085900859027000
B1326455242798N00203326WA0085000850027000
B1326495242839N00203220WA0084400844027000
B1326535242880N00203113WA0084600846027000
B1326575242918N00203012WA0084100841027000
B1327015242955N00202905WA0082500825027000
B1327055242994N00202793WA0080100801027000
B1327095243037N00202676WA0078600786027000
B1327135243078N00202557WA0077800778027000
B1327175243119N00202441WA0076900769027000
B1327215243161N00202327WA0075900759027000
B1327255243206N00202212WA0073900739027000
B1327295243254N00202094WA0072300723027000
B1327335243306N00201978WA0071500715027000
B1327375243357N00201866WA0071700717027000
B1327415243403N00201765WA0074500745027000
B1327455243443N00201685WA0076900769027000
B1327495243480N00201611WA0077600776027000
B1327535243517N00201533WA0078100781027000
B1327575243555N00201457WA0079000790027000
B1328015243595N00201387WA0080200802027000
B1328055243637N00201324WA0081500815027000
B1328095243683N00201273WA0082300823027000
B1328135243736N00201236WA0082900829027000
B1328175243793N00201218WA0083400834027000
B1328215243854N00201224WA0084000840027000
B1328255243914N00201256WA0084300843027000
B1328295243968N00201317WA0084300843027000
B1328335244010N00201408WA0083700837027000
B1328375244047N00201520WA0082800828027000
B1328415244091N00201632WA0082300823027000
B1328455244146N00201736WA0082200822027000
B1328495244204N00201833WA0081300813027000
B1328535244264N00201932WA0079900799027000
B1328575244322N00202037WA0078100781027000
B1329015244382N00202143WA0076300763027000
B1329055244447N00202251WA0074200742027000
B1329095244516N00202367WA0072600726027000
B1329135244585N00202485WA0071700717027000
B1329175244654N00202604WA0070800708027000
B1329215244723N00202724WA0070800708027000
B1329255244785N00202834WA0072200722027000
B1329295244842N00202942WA0071700717027000
B1329335244901N00203054WA0070600706027000
B1329375244962N00203168WA0069700697027000
B1329415245024N00203281WA0069500695027000
B1329455245084N00203390WA0069600696027000
B1329495245144N00203498WA0069900699027000
B1329535245200N00203598WA0070500705027000
B1329575245255N00203698WA0069600696027000
B1330015245315N00203803WA0068000680027000
B1330055245378N00203913WA0066000660027000
B1330095245446N00204031WA0064200642027000
B1330135245515N00204150WA0064300643027000
B1330175245579N00204262WA0065200652027000
B1330215245637N00204365WA0066500665027000
B1330255245692N00204463WA0066000660027000
B1330295245751N00204563WA0064700647027000
B1330335245813N00204667WA0063600636027000
B1330375245878N00204772WA0063200632027000
B1330415245941N00204877WA0063700637027000
B1330455245998N00204978WA0064600646027000
B1330495246052N00205076WA0063800638027000
B1330535246111N00205178WA0061700617027000
B1330575246175N00205284WA0060300603027000
B1331015246242N00205393WA0059500595027000
B1331055246311N00205501WA0058800588027000
B1331095246379N00205608WA0058400584027000
B1331135246447N00205720WA0057700577027000
B1331175246511N00205830WA0057500575027000
B1331215246574N00205939WA0057400574027000
B1331255246637N00206048WA0056900569027000
B1331295246699N00206155WA0056800568027000
B1331335246760N00206259WA0057000570027000
B1331375246820N00206361WA0056200562027000
B1331415246883N00206470WA0055000550027000
B1331455246944N00206586WA0053800538027000
B1331495247004N00206707WA0052800528027000
B1331535247067N00206830WA0051400514027000
B1331575247131N00206955WA0050000500027000
B1332015247194N00207079WA0049000490027000
B1332055247260N00207202WA0049000490027000
B1332095247321N00207311WA0051200512027000
B1332135247374N00207407WA0053000530027000
B1332175247426N00207498WA0053000530027000
B1332215247479N00207591WA0052300523027000
B1332255247533N00207695WA0051000510027000
B1332295247590N00207805WA0049600496027000
B1332335247651N00207919WA0048000480027000
B1332375247713N00208035WA0046400464027000
B1332415247773N00208156WA0044800448027000
B1332455247835N00208275WA0043300433027000
B1332495247895N00208392WA0042700427027000
B1332535247954N00208508WA0042500425027000
B1332575248011N00208624WA0041900419027000
B1333015248070N00208740WA0040800408027000
B1333055248132N00208856WA0039600396027000
B1333095248196N00208977WA0038000380027000
B1333135248261N00209100WA0037900379027000
B1333175248321N00209217WA0039000390027000
B1333215248374N00209327WA0039900399027000
B1333255248424N00209431WA0038900389027000
B1333295248477N00209543WA0036600366027000
B1333335248533N00209662WA0034800348027000
B1333375248591N00209782WA0034100341027000
B1333415248649N00209901WA0034600346027000
B1333455248699N00210008WA0037600376027000
B1333495248741N00210099WA0038900389027000
B1333535248785N00210188WA0038000380027000
B1333575248832N00210287WA0037200372027000
B1334015248881N00210393WA0036600366027000
B1334055248930N00210503WA0036100361027000
B1334095248980N00210616WA0035400354027000
B1334135249034N00210736WA0033400334027000
B1334175249088N00210867WA0031700317027000
B1334215249140N00211002WA0030100301027000
B1334255249195N00211142WA0028200282027000
B1334295249253N00211289WA0027400274027000
B1334335249315N00211447WA0026300263027000
B1334375249382N00211615WA0023700237027000
B1334415249454N00211795WA0019100191027000
B1334455249528N00211987WA0016300163027000
B1334495249599N00212180WA0014900149027000
B1334535249663N00212378WA0014900149027000
B1334575249708N00212565WA0018800188027000
B1335015249732N00212716WA0023900239027000
B1335055249740N00212839WA0025900259027000
B1335095249734N00212952WA0025600256027000
B1335135249712N00213063WA0024900249027000
B1335175249684N00213171WA0024500245027000
B1335215249639N00213261WA0023400234027000
B1335255249574N00213294WA0022400224027000
B1335295249518N00213250WA0021100211027000
B1335335249502N00213152WA0019000190027000
B1335375249529N00213047WA0017600176027000
B1335415249559N00212949WA0017100171027000
B1335455249582N00212849WA0016700167027000
B1335495249590N00212751WA0016000160027000
B1335535249586N00212668WA0014000140027000
B1335575249587N00212591WA0012700127027000
B1336015249588N00212516WA0011000110027000
B1336055249590N00212448WA0010100101027000
B1336095249596N00212392WA0009800098027000
B1336135249599N00212352WA0009800098027000
B1336175249600N00212345WA0009800098027000
B1336215249600N00212345WA0009800098027000
GUBJC29
